:100000000C943C010C946D010C946D010C946D01E9
:100010000C946D010C946D010C946D010C946D01A8
:100020000C946D010C946D010C946D010C946D0198
:100030000C946D010C946D010C946D010C946D0188
:100040000C946D010C946D010C946D010C946D0178
:100050000C946D010C946D010C946D010C9479035A
:100060000C946D010C946D010C946D010C946D0158
:100070000C946D010C946D010C946D010C946D0148
:100080000C946D010C946D010C946D010C946D0138
:100090000C946D010C946D010C946D010C946D0128
:1000A0000C946D010C946D010C946D010C946D0118
:1000B0000C946D010C946D010C946D010C946D0108
:1000C0000C946D010C946D010C946D010C946D01F8
:1000D0000C946D010C946D010C946D010C946D01E8
:1000E0000C946D010C94A2020C94AA020C94FF01D2
:1000F0000C94FF020C9486020C9432020C942E0293
:100100000C9477020C9490020C941A020C94BE0288
:100110000C94C8020C946B040C94D7020C947C02CF
:100120000C94EB020C94FB010C94B4020C940903A4
:100130000C94F5020C9402020C9424020C94160206
:100140000C94E1010C9420020C946F020C949A021E
:100150000C940C020C94F3010C9408020C94DC0136
:100160000C9412020C94F7010C94E1020C942802F6
:1001700000000A0B02090C0D0E0807030401000021
:10018000000000000000000000000000000000006F
:10019000000000000000000000000000121110002C
:1001A000000000000000000000000000000000004F
:1001B00000000000000000002200250028002B00A5
:1001C0002E003100340002010000050108010B017E
:1001D00000002100240027002A002D0030003300F9
:1001E00001010000040107010A01050505050705D5
:1001F00008080808020202020A0A080804040404A3
:1002000001010101010101010303030303030303CE
:10021000040707070C0C0C0C0C0C0C0C020202025D
:1002200006060606060606060B0B0B0B0B0B0B0B46
:1002300001021020200808102040102040800201F8
:1002400002010804020101020408102040808040DD
:1002500020100804020180040201804020100804DC
:10026000020108040201010204081020408001027A
:100270000408102040806B0411241FBECFEFD1E290
:10028000DEBFCDBF00E00CBF12E0A0E0B2E0E8EAC4
:10029000F9E000E00BBF02C007900D92A030B1075B
:1002A000D9F722E0A0E0B2E001C01D92A133B2076D
:1002B000E1F711E0CCE3D1E000E006C021970109AD
:1002C000802FFE010E94CA04CB33D10780E00807CB
:1002D000A9F70E94C3030C94D2040C94000090E090
:1002E000FC01E05DFD4F249186519E4FFC018491FD
:1002F000882399F090E0880F991FFC01E053FE4F8E
:10030000A591B491FC01EA54FE4F859194918FB769
:10031000F894EC91E22BEC938FBF0895CF93DF9389
:10032000FC01862FD42FC22F6483758346835783A5
:100330002087318740E050E06FE773E440835183CA
:10034000628373830E946F018D2F0E946F018C2F37
:10035000DF91CF910C946F01282F30E0F901E05923
:10036000FE4F9491F901E05DFD4F449126513E4FBF
:10037000F9012491222309F435C0992311F19150F8
:100380009231F8F4E92FF0E08827E653FE4F8F4FC3
:100390000C94CA04FB01FF01DC01F301F701E10148
:1003A000020208020C02120216021A0220022402A1
:1003B000E10128022E023202809180008F77809323
:1003C0008000E22FF0E0EE0FFF1FEA54FE4FA591F0
:1003D000B4918FB7F894EC91611148C040954E23C9
:1003E0004C938FBF0895809180008F7DE8CF8091DE
:1003F0008000877FE4CF84B58F7784BDE2CF84B55A
:100400008F7DFBCF8091B0008F778093B000D9CFE4
:100410008091B0008F7DF9CF809190008F7780938D
:100420009000CFCF809190008F7DF9CF8091900088
:10043000877FF5CF8091A0008F778093A000C1CFF8
:100440008091A0008F7DF9CF8091A000877FF5CFAC
:10045000809120018F7780932001B3CF809120017C
:100460008F7DF9CF80912001877FF5CF4E2BB8CFBC
:100470001F93CF93DF93182FEB010E946F012097FA
:1004800039F460E0812FDF91CF911F910C94AC0182
:10049000CF3FD10511F461E0F5CFE12FF0E0E05955
:1004A000FE4FE491E150E23108F0B3C0F0E088275C
:1004B000E35AFD4F8F4F0C94CA046F0277027C02FF
:1004C0008602900209039A02A202AA02B402BE02A4
:1004D000C802D702E1020903EB02F502FF0284B56C
:1004E000806884BDC7BDDF91CF911F91089584B509
:1004F000806284BDC8BDF7CF809180008068809302
:100500008000D0938900C0938800EDCF8091800057
:10051000806280938000D0938B00C0938A00E3CFE9
:1005200080918000886080938000D0938D00C0937C
:100530008C00D9CF8091B00080688093B000C093C8
:10054000B300D1CF8091B00080628093B000C0939F
:10055000B400C9CF80919000806880939000D093C0
:100560009900C0939800BFCF8091900080628093E3
:100570009000D0939B00C0939A00B5CF80919000DB
:10058000886080939000D0939D00C0939C00ABCF77
:100590008091A00080688093A0008091A0008F7B54
:1005A0008093A000D093A900C093A8009CCF809115
:1005B000A00080628093A000D093AB00C093AA00FB
:1005C00092CF8091A00088608093A000D093AD006E
:1005D000C093AC0088CF8091200180688093200177
:1005E000D0932901C09328017ECF809120018062A1
:1005F00080932001D0932B01C0932A0174CF809166
:100600002001886080932001D0932D01C0932C019C
:100610006ACFC038D1050CF03ECF33CF3FB7F89446
:1006200080912D0290912E02A0912F02B091300264
:1006300026B5A89B05C02F3F19F00196A11DB11D3D
:100640003FBFBA2FA92F982F8827BC01CD01620F79
:10065000711D811D911D42E0660F771F881F991F34
:100660004A95D1F708950F931F93CF93DF938C0191
:10067000EB01FC0184819B012A5B3F4F2C38310543
:1006800060F460E00E94AC0160E0F8018681DF91D7
:10069000CF911F910F910C94AC0177FF1AC060E0CD
:1006A0000E94AC0161E0F80186810E94AC01C1307A
:1006B000FFEFDF0714F4C1E0DFEF662777276C1B3D
:1006C0007D0BF8018085DF91CF911F910F910C94E4
:1006D000380261E00E94AC0160E0F80186810E946E
:1006E000AC01BE01CF3FD10561F35CF36FEF70E069
:1006F000E8CF1F920F920FB60F9211242F933F93C2
:100700008F939F93AF93BF938091290290912A0278
:10071000A0912B02B0912C023091280223E0230FEC
:100720002D3758F50196A11DB11D20932802809305
:10073000290290932A02A0932B02B0932C0280915D
:100740002D0290912E02A0912F02B09130020196BD
:10075000A11DB11D80932D0290932E02A0932F0214
:10076000B0933002BF91AF919F918F913F912F91A4
:100770000F900FBE0F901F90189526E8230F02963A
:10078000A11DB11DD2CF789484B5826084BD84B59B
:10079000816084BD85B5826085BD85B5816085BD7C
:1007A00080916E00816080936E0010928100809134
:1007B00081008260809381008091810081608093BC
:1007C0008100809180008160809380008091B100E1
:1007D00084608093B1008091B00081608093B0000C
:1007E000809191008260809391008091910081605E
:1007F000809391008091900081608093900080911F
:10080000A10082608093A1008091A100816080930B
:10081000A1008091A00081608093A00080912101BF
:100820008260809321018091210181608093210168
:100830008091200181608093200180917A00846002
:1008400080937A0080917A00826080937A00809110
:100850007A00816080937A0080917A00806880932A
:100860007A001092C100C0E0D0E060E07FEF84E148
:1008700092E00E94330370E060E08EE192E00E941B
:1008800033030E940E034B015C0180E1C82E87E216
:10089000D82EE12CF12C0E940E03681979098A09DF
:1008A0009B09683E734081059105A8F321E0C21AB7
:1008B000D108E108F10888EE880E83E0981EA11C9B
:1008C000B11CC114D104E104F10429F7209769F2A5
:1008D0000E940000CACFCF93DF93CDB7DEB76497F5
:1008E0000FB6F894DEBF0FBECDBF25E030E048E084
:1008F00050E064E070E08AE092E00E948E0126E021
:1009000030E04DE050E06CE070E080E092E00E946A
:100910008E018AE0EAE0F2E0DE011B9601900D9282
:100920008A95E1F78AE0E0E0F2E0DE0111960190BD
:100930000D928A95E1F725E030E048E050E064E070
:1009400070E084E192E00E948E0125E030E048E012
:1009500050E064E070E08EE192E00E948E018AE057
:10096000FE013B96A4E1B2E001900D928A95E1F779
:100970008AE0FE013196AEE1B2E001900D928A95D7
:10098000E1F764960FB6F894DEBF0FBECDBFDF91DE
:10099000CF910895EE0FFF1F881F8BBF0790F69130
:0809A000E02D1994F894FFCF3B
:00000001FF
