:100000000C945D000C947A000C947A000C947A00A5
:100010000C947A000C947A000C947A000C947A0078
:100020000C947A000C947A000C947A000C947A0068
:100030000C947A000C947A000C947A000C947A0058
:100040000C9468010C947A000C947A000C947A0059
:100050000C947A000C947A000C947A000C947A0038
:100060000C947A000C947A00000000080002010051
:100070000003040700000000000000000000000072
:10008000250028002B0000000000240027002A0083
:10009000040404040404040402020202020203032E
:1000A0000303030301020408102040800102040836
:1000B0001020010204081020600211241FBECFEF9F
:1000C000D8E0DEBFCDBF21E0A0E0B1E001C01D92CD
:1000D000A133B207E1F710E0CDE5D0E004C02197ED
:1000E000FE010E94BF02CC35D107C9F70E94D001A2
:1000F0000C94C5020C94000090E0FC01EC55FF4FFD
:10010000249180579F4FFC018491882399F090E0BF
:10011000880F991FFC01EA57FF4FA591B491FC018C
:10012000E458FF4F859194918FB7F894EC91E22BAE
:10013000EC938FBF089590E0FC01E859FF4F2491A4
:10014000FC01EC55FF4F3491FC01E057FF4FE49167
:10015000EE23C9F0222339F0233001F1A8F4213035
:1001600019F1223029F1F0E0EE0FFF1FE458FF4FA4
:10017000A591B4918FB7F894EC91611126C0309598
:100180003E233C938FBF08952730A9F02830C9F053
:10019000243049F7809180008F7D03C080918000DA
:1001A0008F7780938000DFCF84B58F7784BDDBCFDE
:1001B00084B58F7DFBCF8091B0008F778093B000A6
:1001C000D2CF8091B0008F7DF9CF3E2BDACF1F9335
:1001D000CF93DF93182FEB010E947C00209739F416
:1001E00060E0812FDF91CF911F910C949B00CF3F56
:1001F000D10511F461E0F5CFE12FF0E0E859FF4FB0
:10020000E491E33031F140F4E130B1F0E230E1F07B
:10021000C038D1057CF7E4CFE73029F1E83059F157
:10022000E430B1F780918000806280938000D093A9
:100230008B00C0938A0004C084B5806884BDC7BDAC
:10024000DF91CF911F91089584B5806284BDC8BDB0
:10025000F7CF80918000806880938000D0938900E0
:10026000C0938800EDCF8091B00080688093B0008B
:10027000C093B300E5CF8091B00080628093B0005E
:10028000C093B400DDCF3FB7F89480912D019091D9
:100290002E01A0912F01B091300126B5A89B05C079
:1002A0002F3F19F00196A11DB11D3FBFBA2FA92FF5
:1002B000982F8827BC01CD01620F711D811D911DF2
:1002C00042E0660F771F881F991F4A95D1F708955E
:1002D0001F920F920FB60F9211242F933F938F937B
:1002E0009F93AF93BF938091290190912A01A09190
:1002F0002B01B0912C013091280123E0230F2D37E1
:1003000058F50196A11DB11D209328018093290164
:1003100090932A01A0932B01B0932C0180912D0181
:1003200090912E01A0912F01B09130010196A11D55
:10033000B11D80932D0190932E01A0932F01B093B6
:100340003001BF91AF919F918F913F912F910F906D
:100350000FBE0F901F90189526E8230F0296A11D3F
:10036000B11DD2CFCF93DF93FC01862FD42FC22FA4
:1003700064837583468357832087318740E050E04C
:100380006FE773E440835183628373830E947C0030
:100390008D2F0E947C008C2FDF91CF910C947C00DC
:1003A000789484B5826084BD84B5816084BD85B550
:1003B000826085BD85B5816085BD80916E0081605C
:1003C00080936E0010928100809181008260809302
:1003D0008100809181008160809381008091800004
:1003E0008160809380008091B10084608093B1002F
:1003F0008091B00081608093B00080917A00846029
:1004000080937A0080917A00826080937A00809154
:100410007A00816080937A0080917A00806880936E
:100420007A001092C100C0E0D0E061E08091180134
:100430000E949B0060E080911A010E949B006FEF78
:1004400070E080911C010E94E70061E08091220130
:100450000E949B0060E0809124010E949B006FEF4E
:1004600070E0809126010E94E7000E9443014B0149
:100470005C0188EEC82E83E0D82EE12CF12C0E947E
:100480004301681979098A099B09683E734081050F
:100490009105A8F321E0C21AD108E108F10888EE1D
:1004A000880E83E0981EA11CB11CC114D104E10484
:1004B000F10429F7209709F4B8CF0E940000B5CFC6
:1004C000CF93DF93CDB7DEB764970FB6F894DEBF56
:1004D0000FBECDBF25E030E048E050E064E070E0C2
:1004E0008AE091E00E94B20126E030E04DE050E069
:1004F0006CE070E080E091E00E94B2018AE0EAE006
:10050000F1E0DE011B9601900D928A95E1F78AE0F9
:10051000E0E0F1E0DE01119601900D928A95E1F79D
:1005200025E030E048E050E064E070E084E191E0F4
:100530000E94B20125E030E048E050E064E070E065
:100540008EE191E00E94B2018AE0FE013B96A4E1B7
:10055000B1E001900D928A95E1F78AE0FE013196B3
:10056000AEE1B1E001900D928A95E1F764960FB685
:10057000F894DEBF0FBECDBFDF91CF910895EE0F8F
:0E058000FF1F0590F491E02D0994F894FFCF31
:00000001FF
